{
  "_format": "hh-sol-artifact-1",
  "contractName": "Charity",
  "sourceName": "contracts/Charity.sol",
  "abi": [
    {
      "inputs": [],
      "stateMutability": "nonpayable",
      "type": "constructor"
    },
    {
      "anonymous": false,
      "inputs": [
        {
          "indexed": true,
          "internalType": "uint256",
          "name": "campaignId",
          "type": "uint256"
        },
        {
          "indexed": false,
          "internalType": "uint256",
          "name": "totalRaised",
          "type": "uint256"
        }
      ],
      "name": "CampaignCompleted",
      "type": "event"
    },
    {
      "anonymous": false,
      "inputs": [
        {
          "indexed": true,
          "internalType": "uint256",
          "name": "campaignId",
          "type": "uint256"
        },
        {
          "indexed": false,
          "internalType": "string",
          "name": "title",
          "type": "string"
        },
        {
          "indexed": false,
          "internalType": "address",
          "name": "beneficiary",
          "type": "address"
        },
        {
          "indexed": false,
          "internalType": "uint256",
          "name": "goal",
          "type": "uint256"
        },
        {
          "indexed": false,
          "internalType": "uint256",
          "name": "deadline",
          "type": "uint256"
        }
      ],
      "name": "CampaignCreated",
      "type": "event"
    },
    {
      "anonymous": false,
      "inputs": [
        {
          "indexed": true,
          "internalType": "uint256",
          "name": "campaignId",
          "type": "uint256"
        },
        {
          "indexed": true,
          "internalType": "address",
          "name": "donor",
          "type": "address"
        },
        {
          "indexed": false,
          "internalType": "uint256",
          "name": "amount",
          "type": "uint256"
        }
      ],
      "name": "DonationMade",
      "type": "event"
    },
    {
      "anonymous": false,
      "inputs": [
        {
          "indexed": true,
          "internalType": "uint256",
          "name": "campaignId",
          "type": "uint256"
        },
        {
          "indexed": false,
          "internalType": "address",
          "name": "beneficiary",
          "type": "address"
        },
        {
          "indexed": false,
          "internalType": "uint256",
          "name": "amount",
          "type": "uint256"
        }
      ],
      "name": "FundsWithdrawn",
      "type": "event"
    },
    {
      "anonymous": false,
      "inputs": [
        {
          "indexed": true,
          "internalType": "address",
          "name": "previousOwner",
          "type": "address"
        },
        {
          "indexed": true,
          "internalType": "address",
          "name": "newOwner",
          "type": "address"
        }
      ],
      "name": "OwnershipTransferred",
      "type": "event"
    },
    {
      "inputs": [],
      "name": "campaignCounter",
      "outputs": [
        {
          "internalType": "uint256",
          "name": "",
          "type": "uint256"
        }
      ],
      "stateMutability": "view",
      "type": "function"
    },
    {
      "inputs": [
        {
          "internalType": "uint256",
          "name": "",
          "type": "uint256"
        },
        {
          "internalType": "uint256",
          "name": "",
          "type": "uint256"
        }
      ],
      "name": "campaignDonations",
      "outputs": [
        {
          "internalType": "address",
          "name": "donor",
          "type": "address"
        },
        {
          "internalType": "uint256",
          "name": "amount",
          "type": "uint256"
        },
        {
          "internalType": "uint256",
          "name": "timestamp",
          "type": "uint256"
        },
        {
          "internalType": "uint256",
          "name": "campaignId",
          "type": "uint256"
        }
      ],
      "stateMutability": "view",
      "type": "function"
    },
    {
      "inputs": [
        {
          "internalType": "uint256",
          "name": "",
          "type": "uint256"
        }
      ],
      "name": "campaigns",
      "outputs": [
        {
          "internalType": "uint256",
          "name": "id",
          "type": "uint256"
        },
        {
          "internalType": "string",
          "name": "title",
          "type": "string"
        },
        {
          "internalType": "string",
          "name": "description",
          "type": "string"
        },
        {
          "internalType": "address payable",
          "name": "beneficiary",
          "type": "address"
        },
        {
          "internalType": "uint256",
          "name": "goal",
          "type": "uint256"
        },
        {
          "internalType": "uint256",
          "name": "raised",
          "type": "uint256"
        },
        {
          "internalType": "uint256",
          "name": "deadline",
          "type": "uint256"
        },
        {
          "internalType": "bool",
          "name": "active",
          "type": "bool"
        },
        {
          "internalType": "bool",
          "name": "goalReached",
          "type": "bool"
        }
      ],
      "stateMutability": "view",
      "type": "function"
    },
    {
      "inputs": [
        {
          "internalType": "string",
          "name": "_title",
          "type": "string"
        },
        {
          "internalType": "string",
          "name": "_description",
          "type": "string"
        },
        {
          "internalType": "address payable",
          "name": "_beneficiary",
          "type": "address"
        },
        {
          "internalType": "uint256",
          "name": "_goal",
          "type": "uint256"
        },
        {
          "internalType": "uint256",
          "name": "_durationInDays",
          "type": "uint256"
        }
      ],
      "name": "createCampaign",
      "outputs": [
        {
          "internalType": "uint256",
          "name": "",
          "type": "uint256"
        }
      ],
      "stateMutability": "nonpayable",
      "type": "function"
    },
    {
      "inputs": [
        {
          "internalType": "uint256",
          "name": "_campaignId",
          "type": "uint256"
        }
      ],
      "name": "donate",
      "outputs": [],
      "stateMutability": "payable",
      "type": "function"
    },
    {
      "inputs": [
        {
          "internalType": "address",
          "name": "",
          "type": "address"
        },
        {
          "internalType": "uint256",
          "name": "",
          "type": "uint256"
        }
      ],
      "name": "donorCampaigns",
      "outputs": [
        {
          "internalType": "uint256",
          "name": "",
          "type": "uint256"
        }
      ],
      "stateMutability": "view",
      "type": "function"
    },
    {
      "inputs": [],
      "name": "getAllActiveCampaigns",
      "outputs": [
        {
          "components": [
            {
              "internalType": "uint256",
              "name": "id",
              "type": "uint256"
            },
            {
              "internalType": "string",
              "name": "title",
              "type": "string"
            },
            {
              "internalType": "string",
              "name": "description",
              "type": "string"
            },
            {
              "internalType": "address payable",
              "name": "beneficiary",
              "type": "address"
            },
            {
              "internalType": "uint256",
              "name": "goal",
              "type": "uint256"
            },
            {
              "internalType": "uint256",
              "name": "raised",
              "type": "uint256"
            },
            {
              "internalType": "uint256",
              "name": "deadline",
              "type": "uint256"
            },
            {
              "internalType": "bool",
              "name": "active",
              "type": "bool"
            },
            {
              "internalType": "bool",
              "name": "goalReached",
              "type": "bool"
            }
          ],
          "internalType": "struct Charity.Campaign[]",
          "name": "",
          "type": "tuple[]"
        }
      ],
      "stateMutability": "view",
      "type": "function"
    },
    {
      "inputs": [
        {
          "internalType": "uint256",
          "name": "_campaignId",
          "type": "uint256"
        }
      ],
      "name": "getCampaign",
      "outputs": [
        {
          "components": [
            {
              "internalType": "uint256",
              "name": "id",
              "type": "uint256"
            },
            {
              "internalType": "string",
              "name": "title",
              "type": "string"
            },
            {
              "internalType": "string",
              "name": "description",
              "type": "string"
            },
            {
              "internalType": "address payable",
              "name": "beneficiary",
              "type": "address"
            },
            {
              "internalType": "uint256",
              "name": "goal",
              "type": "uint256"
            },
            {
              "internalType": "uint256",
              "name": "raised",
              "type": "uint256"
            },
            {
              "internalType": "uint256",
              "name": "deadline",
              "type": "uint256"
            },
            {
              "internalType": "bool",
              "name": "active",
              "type": "bool"
            },
            {
              "internalType": "bool",
              "name": "goalReached",
              "type": "bool"
            }
          ],
          "internalType": "struct Charity.Campaign",
          "name": "",
          "type": "tuple"
        }
      ],
      "stateMutability": "view",
      "type": "function"
    },
    {
      "inputs": [
        {
          "internalType": "uint256",
          "name": "_campaignId",
          "type": "uint256"
        }
      ],
      "name": "getCampaignDonations",
      "outputs": [
        {
          "components": [
            {
              "internalType": "address",
              "name": "donor",
              "type": "address"
            },
            {
              "internalType": "uint256",
              "name": "amount",
              "type": "uint256"
            },
            {
              "internalType": "uint256",
              "name": "timestamp",
              "type": "uint256"
            },
            {
              "internalType": "uint256",
              "name": "campaignId",
              "type": "uint256"
            }
          ],
          "internalType": "struct Charity.Donation[]",
          "name": "",
          "type": "tuple[]"
        }
      ],
      "stateMutability": "view",
      "type": "function"
    },
    {
      "inputs": [
        {
          "internalType": "address",
          "name": "_donor",
          "type": "address"
        }
      ],
      "name": "getDonorCampaigns",
      "outputs": [
        {
          "internalType": "uint256[]",
          "name": "",
          "type": "uint256[]"
        }
      ],
      "stateMutability": "view",
      "type": "function"
    },
    {
      "inputs": [],
      "name": "owner",
      "outputs": [
        {
          "internalType": "address",
          "name": "",
          "type": "address"
        }
      ],
      "stateMutability": "view",
      "type": "function"
    },
    {
      "inputs": [],
      "name": "renounceOwnership",
      "outputs": [],
      "stateMutability": "nonpayable",
      "type": "function"
    },
    {
      "inputs": [],
      "name": "totalDonations",
      "outputs": [
        {
          "internalType": "uint256",
          "name": "",
          "type": "uint256"
        }
      ],
      "stateMutability": "view",
      "type": "function"
    },
    {
      "inputs": [
        {
          "internalType": "address",
          "name": "newOwner",
          "type": "address"
        }
      ],
      "name": "transferOwnership",
      "outputs": [],
      "stateMutability": "nonpayable",
      "type": "function"
    },
    {
      "inputs": [
        {
          "internalType": "uint256",
          "name": "_campaignId",
          "type": "uint256"
        }
      ],
      "name": "withdrawFunds",
      "outputs": [],
      "stateMutability": "nonpayable",
      "type": "function"
    }
  ],
  "bytecode": "0x608060405234801561001057600080fd5b5061001a33610023565b60018055610073565b600080546001600160a01b038381166001600160a01b0319831681178455604051919092169283917f8be0079c531659141344cd1fd0a4f28419497f9722a3daafe3b4186f6b6457e09190a35050565b611a84806100826000396000f3fe6080604052600436106100e85760003560e01c806370879ff71161008a578063de2ed89311610059578063de2ed893146102cb578063f14faf6f146102e1578063f2fde38b146102f4578063fca604d71461031457600080fd5b806370879ff714610224578063715018a61461026e5780638da5cb5b146102835780639304d124146102ab57600080fd5b80635167642f116100c65780635167642f1461017a5780635598f8cc146101a75780635cc3224e146101d4578063676f9400146101f657600080fd5b8063141961bc146100ed578063155dd5ee1461012b5780632e4e7dd91461014d575b600080fd5b3480156100f957600080fd5b5061010d6101083660046113da565b61032a565b60405161012299989796959493929190611439565b60405180910390f35b34801561013757600080fd5b5061014b6101463660046113da565b610492565b005b34801561015957600080fd5b5061016d6101683660046114be565b610687565b60405161012291906114e2565b34801561018657600080fd5b5061019a6101953660046113da565b6106f3565b6040516101229190611526565b3480156101b357600080fd5b506101c76101c23660046113da565b6107a7565b6040516101229190611633565b3480156101e057600080fd5b506101e9610974565b6040516101229190611646565b34801561020257600080fd5b506102166102113660046116a8565b610c5d565b604051908152602001610122565b34801561023057600080fd5b5061024461023f3660046116d4565b610c8e565b604080516001600160a01b0390951685526020850193909352918301526060820152608001610122565b34801561027a57600080fd5b5061014b610cde565b34801561028f57600080fd5b506000546040516001600160a01b039091168152602001610122565b3480156102b757600080fd5b506102166102c6366004611799565b610cf2565b3480156102d757600080fd5b5061021660065481565b61014b6102ef3660046113da565b610f6b565b34801561030057600080fd5b5061014b61030f3660046114be565b611208565b34801561032057600080fd5b5061021660055481565b6002602052600090815260409020805460018201805491929161034c90611821565b80601f016020809104026020016040519081016040528092919081815260200182805461037890611821565b80156103c55780601f1061039a576101008083540402835291602001916103c5565b820191906000526020600020905b8154815290600101906020018083116103a857829003601f168201915b5050505050908060020180546103da90611821565b80601f016020809104026020016040519081016040528092919081815260200182805461040690611821565b80156104535780601f1061042857610100808354040283529160200191610453565b820191906000526020600020905b81548152906001019060200180831161043657829003601f168201915b505050600384015460048501546005860154600687015460079097015495966001600160a01b0390931695919450925060ff8082169161010090041689565b61049a61127e565b60055481106104c45760405162461bcd60e51b81526004016104bb9061185b565b60405180910390fd5b600081815260026020526040902060038101546001600160a01b0316331461052e5760405162461bcd60e51b815260206004820152601d60248201527f4f6e6c792062656e65666963696172792063616e20776974686472617700000060448201526064016104bb565b60008160050154116105795760405162461bcd60e51b81526020600482015260146024820152734e6f2066756e647320746f20776974686472617760601b60448201526064016104bb565b80600601544210158061059557506007810154610100900460ff165b6105d95760405162461bcd60e51b815260206004820152601560248201527443616d706169676e207374696c6c2061637469766560581b60448201526064016104bb565b60058101805460009182905560078301805460ff19169055600383015460405191926001600160a01b039091169183156108fc0291849190818181858888f1935050505015801561062e573d6000803e3d6000fd5b506003820154604080516001600160a01b0390921682526020820183905284917ff440aec6b52895984d061d622e6edeba6210f7c3e059be920663140c084560d7910160405180910390a2505061068460018055565b50565b6001600160a01b0381166000908152600460209081526040918290208054835181840281018401909452808452606093928301828280156106e757602002820191906000526020600020905b8154815260200190600101908083116106d3575b50505050509050919050565b606060055482106107165760405162461bcd60e51b81526004016104bb9061185b565b600082815260036020908152604080832080548251818502810185019093528083529193909284015b8282101561079c576000848152602090819020604080516080810182526004860290920180546001600160a01b0316835260018082015484860152600282015492840192909252600301546060830152908352909201910161073f565b505050509050919050565b6107af611381565b60055482106107d05760405162461bcd60e51b81526004016104bb9061185b565b60026000838152602001908152602001600020604051806101200160405290816000820154815260200160018201805461080990611821565b80601f016020809104026020016040519081016040528092919081815260200182805461083590611821565b80156108825780601f1061085757610100808354040283529160200191610882565b820191906000526020600020905b81548152906001019060200180831161086557829003601f168201915b5050505050815260200160028201805461089b90611821565b80601f01602080910402602001604051908101604052809291908181526020018280546108c790611821565b80156109145780601f106108e957610100808354040283529160200191610914565b820191906000526020600020905b8154815290600101906020018083116108f757829003601f168201915b505050918352505060038201546001600160a01b0316602082015260048201546040820152600582015460608201526006820154608082015260079091015460ff808216151560a084015261010090910416151560c09091015292915050565b60606000805b6005548110156109da5760008181526002602052604090206007015460ff1680156109b5575060008181526002602052604090206006015442105b156109c857816109c4816118a8565b9250505b806109d2816118a8565b91505061097a565b5060008167ffffffffffffffff8111156109f6576109f66116f6565b604051908082528060200260200182016040528015610a2f57816020015b610a1c611381565b815260200190600190039081610a145790505b5090506000805b600554811015610c545760008181526002602052604090206007015460ff168015610a71575060008181526002602052604090206006015442105b15610c4257600260008281526020019081526020016000206040518061012001604052908160008201548152602001600182018054610aaf90611821565b80601f0160208091040260200160405190810160405280929190818152602001828054610adb90611821565b8015610b285780601f10610afd57610100808354040283529160200191610b28565b820191906000526020600020905b815481529060010190602001808311610b0b57829003601f168201915b50505050508152602001600282018054610b4190611821565b80601f0160208091040260200160405190810160405280929190818152602001828054610b6d90611821565b8015610bba5780601f10610b8f57610100808354040283529160200191610bba565b820191906000526020600020905b815481529060010190602001808311610b9d57829003601f168201915b505050918352505060038201546001600160a01b0316602082015260048201546040820152600582015460608201526006820154608082015260079091015460ff808216151560a084015261010090910416151560c0909101528351849084908110610c2857610c286118c1565b60200260200101819052508180610c3e906118a8565b9250505b80610c4c816118a8565b915050610a36565b50909392505050565b60046020528160005260406000208181548110610c7957600080fd5b90600052602060002001600091509150505481565b60036020528160005260406000208181548110610caa57600080fd5b600091825260209091206004909102018054600182015460028301546003909301546001600160a01b039092169450925084565b610ce66112d7565b610cf06000611331565b565b6000808311610d435760405162461bcd60e51b815260206004820152601b60248201527f476f616c206d7573742062652067726561746572207468616e2030000000000060448201526064016104bb565b60008211610d935760405162461bcd60e51b815260206004820152601f60248201527f4475726174696f6e206d7573742062652067726561746572207468616e20300060448201526064016104bb565b6001600160a01b038416610de95760405162461bcd60e51b815260206004820152601b60248201527f496e76616c69642062656e65666963696172792061646472657373000000000060448201526064016104bb565b6000610df883620151806118d7565b610e0290426118f4565b604080516101208101825260055480825260208083018c81528385018c90526001600160a01b038b166060850152608084018a9052600060a0850181905260c08501879052600160e0860181905261010086018290529381526002909252939020825181559251939450909290820190610e7c9082611956565b5060408201516002820190610e919082611956565b5060608201516003820180546001600160a01b0319166001600160a01b039092169190911790556080820151600482015560a082015160058083019190915560c0830151600683015560e0830151600790920180546101009485015161ffff1990911693151561ff0019169390931792151590930291909117909155546040517f2e4be7f0a0275b06869815699165e220352ac35bdea8c927565a098fa77dffb690610f44908a90899089908790611a16565b60405180910390a260058054906000610f5c836118a8565b90915550979650505050505050565b610f7361127e565b60003411610fc35760405162461bcd60e51b815260206004820152601f60248201527f446f6e6174696f6e206d7573742062652067726561746572207468616e20300060448201526064016104bb565b6005548110610fe45760405162461bcd60e51b81526004016104bb9061185b565b6000818152600260205260409020600781015460ff1661103f5760405162461bcd60e51b815260206004820152601660248201527543616d706169676e206973206e6f742061637469766560501b60448201526064016104bb565b806006015442106110875760405162461bcd60e51b815260206004820152601260248201527110d85b5c185a59db881a185cc8195b99195960721b60448201526064016104bb565b3481600501600082825461109b91906118f4565b9250508190555034600660008282546110b491906118f4565b909155505060008281526003602081815260408084208151608081018352338082523482860190815242838601908152606084018b8152855460018082018855968b52888b209551600491820290960180546001600160a01b0319166001600160a01b03909716969096178655925185870155905160028501555192909601919091558552838352908420805491820181558452922090910183905581015460058201541080159061117057506007810154610100900460ff16155b156111c75760078101805461ff001916610100179055600581015460405183917f562099c771af1034e0fa4d272eeb12a622c0e7b284ff68212cc5ddd2c1b77d34916111be91815260200190565b60405180910390a25b604051348152339083907fe555da28bdb778f65d22794d88927ebaeca03f7de9d1b7d39245bc8fb5ca078a9060200160405180910390a35061068460018055565b6112106112d7565b6001600160a01b0381166112755760405162461bcd60e51b815260206004820152602660248201527f4f776e61626c653a206e6577206f776e657220697320746865207a65726f206160448201526564647265737360d01b60648201526084016104bb565b61068481611331565b6002600154036112d05760405162461bcd60e51b815260206004820152601f60248201527f5265656e7472616e637947756172643a207265656e7472616e742063616c6c0060448201526064016104bb565b6002600155565b6000546001600160a01b03163314610cf05760405162461bcd60e51b815260206004820181905260248201527f4f776e61626c653a2063616c6c6572206973206e6f7420746865206f776e657260448201526064016104bb565b600080546001600160a01b038381166001600160a01b0319831681178455604051919092169283917f8be0079c531659141344cd1fd0a4f28419497f9722a3daafe3b4186f6b6457e09190a35050565b60405180610120016040528060008152602001606081526020016060815260200160006001600160a01b031681526020016000815260200160008152602001600081526020016000151581526020016000151581525090565b6000602082840312156113ec57600080fd5b5035919050565b6000815180845260005b81811015611419576020818501810151868301820152016113fd565b506000602082860101526020601f19601f83011685010191505092915050565b60006101208b83528060208401526114538184018c6113f3565b90508281036040840152611467818b6113f3565b6001600160a01b039990991660608401525050608081019590955260a085019390935260c0840191909152151560e08301521515610100909101529392505050565b6001600160a01b038116811461068457600080fd5b6000602082840312156114d057600080fd5b81356114db816114a9565b9392505050565b6020808252825182820181905260009190848201906040850190845b8181101561151a578351835292840192918401916001016114fe565b50909695505050505050565b602080825282518282018190526000919060409081850190868401855b8281101561158657815180516001600160a01b03168552868101518786015285810151868601526060908101519085015260809093019290850190600101611543565b5091979650505050505050565b60006101208251845260208301518160208601526115b3828601826113f3565b915050604083015184820360408601526115cd82826113f3565b91505060608301516115ea60608601826001600160a01b03169052565b506080830151608085015260a083015160a085015260c083015160c085015260e083015161161c60e086018215159052565b506101009283015115159390920192909252919050565b6020815260006114db6020830184611593565b6000602080830181845280855180835260408601915060408160051b870101925083870160005b8281101561169b57603f19888603018452611689858351611593565b9450928501929085019060010161166d565b5092979650505050505050565b600080604083850312156116bb57600080fd5b82356116c6816114a9565b946020939093013593505050565b600080604083850312156116e757600080fd5b50508035926020909101359150565b634e487b7160e01b600052604160045260246000fd5b600082601f83011261171d57600080fd5b813567ffffffffffffffff80821115611738576117386116f6565b604051601f8301601f19908116603f01168101908282118183101715611760576117606116f6565b8160405283815286602085880101111561177957600080fd5b836020870160208301376000602085830101528094505050505092915050565b600080600080600060a086880312156117b157600080fd5b853567ffffffffffffffff808211156117c957600080fd5b6117d589838a0161170c565b965060208801359150808211156117eb57600080fd5b506117f88882890161170c565b9450506040860135611809816114a9565b94979396509394606081013594506080013592915050565b600181811c9082168061183557607f821691505b60208210810361185557634e487b7160e01b600052602260045260246000fd5b50919050565b60208082526017908201527f43616d706169676e20646f6573206e6f74206578697374000000000000000000604082015260600190565b634e487b7160e01b600052601160045260246000fd5b6000600182016118ba576118ba611892565b5060010190565b634e487b7160e01b600052603260045260246000fd5b80820281158282048414176118ee576118ee611892565b92915050565b808201808211156118ee576118ee611892565b601f82111561195157600081815260208120601f850160051c8101602086101561192e5750805b601f850160051c820191505b8181101561194d5782815560010161193a565b5050505b505050565b815167ffffffffffffffff811115611970576119706116f6565b6119848161197e8454611821565b84611907565b602080601f8311600181146119b957600084156119a15750858301515b600019600386901b1c1916600185901b17855561194d565b600085815260208120601f198616915b828110156119e8578886015182559484019460019091019084016119c9565b5085821015611a065787850151600019600388901b60f8161c191681555b5050505050600190811b01905550565b608081526000611a2960808301876113f3565b6001600160a01b0395909516602083015250604081019290925260609091015291905056fea264697066735822122081b21736f82d2c23b586ca4f0cff400de2e652e3948b47c30af77d5238bedc6264736f6c63430008130033",
  "linkReferences": {},
  "deployedLinkReferences": {}
}